:100000000C942A000C9447000C9447000C94470071
:100010000C9447000C9447000C9447000C94470044
:100020000C9447000C9447000C9447000C94470034
:100030000C9447000C9447000C9447000C94470024
:100040000C9447000C9447000C9447000C94470014
:100050000C94470011241FBECFE5D8E0DEBFCDBF12
:1000600010E0A0E6B0E0ECE4F2E402C005900D92EE
:10007000AC36B107D9F711E0ACE6B0E001C01D9293
:10008000A532B107E1F70E94C30F0C9424210C9410
:100090000000EF92FF920F931F937B018C0120E0F1
:1000A00030E040E05FE40E94490388238CF0C801FF
:1000B000B70120E030E040E05FE40E94C1010E940F
:1000C000A9039B01AC01205030404040504806C07D
:1000D000C801B7010E94A9039B01AC01B901CA0183
:1000E0001F910F91FF90EF900895A0E0B0E0EBE733
:1000F000F0E00C94ED20DC012B01FA019C91923090
:1001000008F439C1EB018881823008F433C194309E
:1001100069F4843009F02FC111969C91119789815F
:10012000981709F428C1A0E6B0E025C1843009F48D
:1001300021C18230A9F4923009F01DC19A01AD01AC
:1001400088E0EA010990AE01E90109929E0181501F
:10015000C1F7E201898111969C918923818308C1AD
:10016000923009F407C112962D903C901397EB0141
:100170008A819B811496AD90BD90CD90DC901797AD
:10018000EC80FD800E811F819101281B390BB90184
:1001900037FF04C066277727621B730B6032710537
:1001A0000CF061C0121613066CF537014801062EDB
:1001B00004C096948794779467940A94D2F721E0C8
:1001C00030E040E050E004C0220F331F441F551FB1
:1001D0006A95D2F721503040404050402E213F21B7
:1001E00040235123211531054105510521F021E01E
:1001F00030E040E050E079018A01E628F72808293C
:1002000019293CC0232BD1F1260E371E350146019A
:10021000062E04C096948794779467940A94D2F734
:1002200021E030E040E050E004C0220F331F441FC3
:10023000551F6A95D2F721503040404050402A2146
:100240003B214C215D21211531054105510521F04E
:1002500021E030E040E050E059016A01A628B728CB
:10026000C828D9280BC0821593052CF01C01AA249C
:10027000BB24650103C0EE24FF24870111969C91E5
:10028000D20111968C91981709F445C0992339F041
:10029000A80197012A193B094C095D0906C0A6016E
:1002A00095012E193F09400B510B57FD08C01182D3
:1002B0003382228224833583468357831DC081E0A5
:1002C00081833382228288279927DC01821B930B4A
:1002D000A40BB50B84839583A683B7830DC0220F2F
:1002E000331F441F551F24833583468357838281E0
:1002F000938101979383828324813581468157813D
:10030000DA01C9010197A109B1098F5F9F4FAF4F72
:10031000BF4328F30BC0918333822282EA0CFB1C7B
:100320000C1D1D1DE482F5820683178383E0808304
:10033000248135814681578157FF1AC0C901AA27F8
:1003400097FDA095BA2F81709070A070B0705695EF
:10035000479537952795822B932BA42BB52B848318
:100360009583A683B7838281938101969383828349
:10037000DF0101C0D201CD01CDB7DEB7E2E10C94BF
:100380000921A0E2B0E0E7ECF1E00C94F9206983E8
:100390007A838B839C832D833E834F835887E9E048
:1003A000EE2EF12CEC0EFD1ECE010196B7010E943F
:1003B000D2048E010F5E1F4FCE010596B8010E9438
:1003C000D2048A8991E089278A8BC701B801AE01DE
:1003D000475E5F4F0E9475000E94FD03A096E6E015
:1003E0000C941521A0E2B0E0E8EFF1E00C94F920C4
:1003F00069837A838B839C832D833E834F835887C5
:10040000F9E0EF2EF12CEC0EFD1ECE010196B701A6
:100410000E94D2048E010F5E1F4FCE010596B801D7
:100420000E94D204C701B801AE01475E5F4F0E942F
:1004300075000E94FD03A096E6E00C941521A0E251
:10044000B0E0E5E2F2E00C94ED2069837A838B83DF
:100450009C832D833E834F835887CE010196BE0136
:10046000675F7F4F0E94D204CE010596BE016F5E8A
:100470007F4F0E94D2049985923088F0898982301A
:10048000C8F0943019F4823051F404C0843029F457
:10049000923081F480E690E0C6C0923049F420E0CA
:1004A0009A858A89981321E02A87CE010996BBC0D4
:1004B000823049F420E09A858A89981321E02A8BBA
:1004C000CE014196B0C02D843E844F8458886D88FB
:1004D0007E888F88988CEE24FF248701AA24BB2471
:1004E000650140E050E060E070E0E0E0F0E0C10174
:1004F00081709070892BE9F0E60CF71C081D191D1E
:100500009A01AB012A0D3B1D4C1D5D1D80E090E062
:10051000A0E0B0E0E614F7040805190520F481E036
:1005200090E0A0E0B0E0BA01A901480F591F6A1F8E
:100530007B1FAA0CBB1CCC1CDD1C97FE08C081E0F5
:1005400090E0A0E0B0E0A82AB92ACA2ADB2A3196B6
:10055000E032F10549F0660C771C881C991C569412
:10056000479437942794C3CFFA85EA892B893C892D
:100570008B859C85280F391F2E5F3F4F17C0CA01FE
:1005800081709070892B61F016950795F794E79428
:1005900080E090E0A0E0B0E8E82AF92A0A2B1B2BC3
:1005A00076956795579547952F5F3F4F77FDE7CF36
:1005B0000CC0440F551F661F771F17FD4160EE0CDE
:1005C000FF1C001F111F21503040403090E05907A0
:1005D00090E0690790E4790760F32B8F3C8FDB0193
:1005E000CA018F779070A070B07080349105A1051A
:1005F000B10561F447FD0AC0E114F10401051105DC
:1006000029F0405C5F4F6F4F7F4F40781A8EFE1786
:1006100011F081E08A8F4D8F5E8F6F8F78A383E01A
:10062000898FCE0149960E94FD03A096E2E10C94C9
:100630000921A8E1B0E0EFE1F3E00C94F92069832F
:100640007A838B839C832D833E834F83588789E0F5
:10065000E82EF12CEC0EFD1ECE010196B7010E9492
:10066000D2048E010F5E1F4FCE010596B8010E9485
:10067000D2048985823040F08989823028F0C70110
:10068000B8010E944A0501C08FEF6896E6E00C941D
:100690001521A8E1B0E0EFE4F3E00C94F9206983C0
:1006A0007A838B839C832D833E834F83588789E095
:1006B000E82EF12CEC0EFD1ECE010196B7010E9432
:1006C000D2048E010F5E1F4FCE010596B8010E9425
:1006D000D2048985823040F08989823028F0C701B0
:1006E000B8010E944A0501C08FEF6896E6E00C94BD
:1006F0001521A8E1B0E0EFE7F3E00C94F92069835D
:100700007A838B839C832D833E834F83588789E034
:10071000E82EF12CEC0EFD1ECE010196B7010E94D1
:10072000D2048E010F5E1F4FCE010596B8010E94C4
:10073000D2048985823040F08989823028F0C7014F
:10074000B8010E944A0501C081E06896E6E00C9479
:100750001521ACE0B0E0EFEAF3E00C94FD206983F2
:100760007A838B839C83CE010196BE016B5F7F4FA2
:100770000E94D2048D81823061F1823050F1843048
:1007800021F48E81882351F12EC02F81388537FDC9
:1007900020C06E812F3131051CF06623F9F023C093
:1007A0008EE190E0821B930B29853A854B855C8511
:1007B00004C056954795379527958A95D2F76623B5
:1007C000B1F050954095309521953F4F4F4F5F4F79
:1007D0000EC020E030E040E050E009C02FEF3FEFD6
:1007E0004FEF5FE704C020E030E040E050E8B9019F
:1007F000CA012C96E2E00C941921DF92EF92FF924D
:100800000F931F93FC01E480F58006811781D1804E
:100810008081823048F480E090E0A0E1B0E0E82AF6
:10082000F92A0A2B1B2BA5C0843009F49FC0823003
:1008300021F4EE24FF24870105C0E114F104010531
:10084000110519F4E0E0F0E096C0628173819FEF3A
:10085000623879070CF05BC022E83FEF261B370BAC
:100860002A3131052CF020E030E040E050E02AC091
:10087000B801A701022E04C0769567955795479554
:100880000A94D2F781E090E0A0E0B0E004C0880FC5
:10089000991FAA1FBB1F2A95D2F70197A109B10979
:1008A0008E219F21A023B1230097A105B10521F03E
:1008B00081E090E0A0E0B0E09A01AB01282B392B59
:1008C0004A2B5B2BDA01C9018F779070A070B07052
:1008D00080349105A105B10539F427FF09C0205CDA
:1008E0003F4F4F4F5F4F04C0215C3F4F4F4F5F4F13
:1008F000E0E0F0E02030A0E03A07A0E04A07A0E402
:100900005A0710F0E1E0F0E079018A0127C0603871
:10091000710564F5FB01E158FF4FD801C7018F77DE
:100920009070A070B07080349105A105B10539F4C4
:10093000E7FE0DC080E490E0A0E0B0E004C08FE3EB
:1009400090E0A0E0B0E0E80EF91E0A1F1B1F17FFA1
:1009500005C016950795F794E794319687E01695AC
:100960000795F794E7948A95D1F705C0EE24FF2404
:100970008701EFEFF0E06E2F679566276795902F60
:100980009F77D794DD24D7948E2F8695492F462BB9
:10099000582F5D29B701CA011F910F91FF90EF9069
:1009A000DF900895FC01DB01408151812281622F9B
:1009B0006F7770E0221F2227221F9381892F880FD3
:1009C000822B282F30E0991F9927991F11969C930D
:1009D000119721153105A9F54115510561057105DD
:1009E00011F482E037C082E89FEF13969C938E93B8
:1009F00012979A01AB0167E0220F331F441F551F66
:100A00006A95D1F783E08C930DC0220F331F441FEA
:100A1000551F12968D919C911397019713969C9355
:100A20008E931297203080E0380780E0480780E4FA
:100A3000580758F314962D933D934D935C93179755
:100A400008952F3F310579F4411551056105710570
:100A500019F484E08C93089564FF03C081E08C93C3
:100A600012C01C9210C02F57304013963C932E9307
:100A7000129783E08C9387E0440F551F661F771F02
:100A80008A95D1F7706414964D935D936D937C9322
:100A9000179708951F93DC01FB019C91923008F495
:100AA00047C08081823008F443C0943051F41196DD
:100AB0001C91843099F58181682F70E0611B710968
:100AC0003FC0843021F0923031F48230B9F181811D
:100AD000882389F12DC011961C9111978230F1F075
:100AE00081811817D9F412962D913C911397828128
:100AF00093818217930794F028173907BCF0149656
:100B00008D919D910D90BC91A02D248135814681C0
:100B10005781281739074A075B0718F4112341F05A
:100B20000AC082179307A407B50740F4112319F0F0
:100B300061E070E005C06FEF7FEF02C060E070E041
:100B4000CB011F910895DF93CF93CDB7DEB72E97DA
:100B50000FB6F894DEBF0FBECDBF8A836B834C8384
:100B600081E089838A81843008F005C18B818830D7
:100B700008F001C18C81823008F0FDC08A81282FE5
:100B800030E03E872D878D859E858130910509F463
:100B90004EC02D853E85223031052CF48D859E85F5
:100BA000009771F0E9C02D853E852230310509F4AA
:100BB00075C08D859E858330910509F4A6C0DCC083
:100BC0008C81282F30E03C872B878B859C85009774
:100BD000C9F02B853C852130310509F0CDC0AAE351
:100BE000B0E0EAE3F0E040818B81282F30E081E043
:100BF00090E0022E02C0880F991F0A94E2F7842B1E
:100C00008C93BAC0AAE3B0E0EAE3F0E08081482F19
:100C10008B81282F30E081E090E0022E02C0880F07
:100C2000991F0A94E2F7809584238C93A5C08C8148
:100C3000282F30E03A87298789859A850097C9F05F
:100C400029853A852130310509F096C0A7E3B0E047
:100C5000E7E3F0E040818B81282F30E081E090E0F5
:100C6000022E02C0880F991F0A94E2F7842B8C93FE
:100C700083C0A7E3B0E0E7E3F0E08081482F8B81F9
:100C8000282F30E081E090E0022E02C0880F991FEB
:100C90000A94E2F7809584238C936EC08C81282F70
:100CA00030E038872F838F8198850097C9F02F8196
:100CB00038852130310509F05FC0A4E3B0E0E4E3FA
:100CC000F0E040818B81282F30E081E090E0022E1F
:100CD00002C0880F991F0A94E2F7842B8C934CC0B2
:100CE000A4E3B0E0E4E3F0E08081482F8B81282F7B
:100CF00030E081E090E0022E02C0880F991F0A9434
:100D0000E2F7809584238C9337C08C81282F30E0C4
:100D10003E832D838D819E810097C1F02D813E8180
:100D20002130310549F5A1E3B0E0E1E3F0E0408195
:100D30008B81282F30E081E090E0022E02C0880FE6
:100D4000991F0A94E2F7842B8C9316C0A1E3B0E0BC
:100D5000E1E3F0E08081482F8B81282F30E081E0B3
:100D600090E0022E02C0880F991F0A94E2F7809546
:100D700084238C9301C0198289812E960FB6F89432
:100D8000DEBF0FBECDBFCF91DF910895DF93CF932C
:100D9000CDB7DEB72E970FB6F894DEBF0FBECDBF2E
:100DA0008A836B834C8381E089838A81843008F055
:100DB00005C18B81883008F001C18C81823008F038
:100DC000FDC08A81282F30E03E872D878D859E8546
:100DD0008130910509F44EC02D853E8522303105C4
:100DE0002CF48D859E85009771F0E9C02D853E8598
:100DF0002230310509F475C08D859E8583309105BB
:100E000009F4A6C0DCC08C81282F30E03C872B87FA
:100E10008B859C850097C9F02B853C852130310559
:100E200009F0CDC0ABE3B0E0EBE3F0E040818B81B3
:100E3000282F30E081E090E0022E02C0880F991F39
:100E40000A94E2F7842B8C93BAC0ABE3B0E0EBE3F7
:100E5000F0E08081482F8B81282F30E081E090E006
:100E6000022E02C0880F991F0A94E2F7809584230E
:100E70008C93A5C08C81282F30E03A8729878985FB
:100E80009A850097C9F029853A852130310509F006
:100E900096C0A8E3B0E0E8E3F0E040818B81282F22
:100EA00030E081E090E0022E02C0880F991F0A9482
:100EB000E2F7842B8C9383C0A8E3B0E0E8E3F0E092
:100EC0008081482F8B81282F30E081E090E0022E36
:100ED00002C0880F991F0A94E2F7809584238C93AF
:100EE0006EC08C81282F30E038872F838F819885C2
:100EF0000097C9F02F8138852130310509F05FC096
:100F0000A5E3B0E0E5E3F0E040818B81282F30E0FD
:100F100081E090E0022E02C0880F991F0A94E2F748
:100F2000842B8C934CC0A5E3B0E0E5E3F0E0808136
:100F3000482F8B81282F30E081E090E0022E02C004
:100F4000880F991F0A94E2F7809584238C9337C009
:100F50008C81282F30E03E832D838D819E810097E8
:100F6000C1F02D813E812130310549F5A2E3B0E089
:100F7000E2E3F0E040818B81282F30E081E090E0D7
:100F8000022E02C0880F991F0A94E2F7842B8C93DB
:100F900016C0A2E3B0E0E2E3F0E08081482F8B814D
:100FA000282F30E081E090E0022E02C0880F991FC8
:100FB0000A94E2F7809584238C9301C01982898179
:100FC0002E960FB6F894DEBF0FBECDBFCF91DF9146
:100FD0000895DF93CF93CDB7DEB727970FB6F89478
:100FE000DEBF0FBECDBF8A836B835D834C8381E000
:100FF00089838A81843008F07AC08B81883008F038
:1010000076C08C819D81009709F471C08A81282F58
:1010100030E03F832E834E815F814130510559F18D
:101020008E819F818230910534F42E813F8121157C
:10103000310569F05DC04E815F814230510579F123
:101040008E819F818330910509F43DC051C0E9E351
:10105000F0E08081282F30E08B81882F90E0A9017B
:1010600002C0559547958A95E2F7CA018170EC81D7
:10107000FD8180833DC0E6E3F0E08081282F30E0F1
:101080008B81882F90E0A90102C0559547958A95DC
:10109000E2F7CA018170EC81FD81808329C0E3E31E
:1010A000F0E08081282F30E08B81882F90E0A9012B
:1010B00002C0559547958A95E2F7CA018170EC8187
:1010C000FD81808315C0E0E3F0E08081282F30E0CF
:1010D0008B81882F90E0A90102C0559547958A958C
:1010E000E2F7CA018170EC81FD81808301C0198221
:1010F000898127960FB6F894DEBF0FBECDBFCF9182
:10110000DF910895DF93CF9300D000D00F92CDB739
:10111000DEB78A836B8381E089838A81843098F586
:101120008A81282F30E03D832C838C819D81813002
:101130009105D1F02C813D81223031052CF48C8138
:101140009D81009761F020C02C813D8122303105C6
:1011500081F08C819D818330910581F015C0EAE397
:10116000F0E08B81808310C0E7E3F0E08B81808327
:101170000BC0E4E3F0E08B81808306C0E1E3F0E0A4
:101180008B81808301C0198289810F900F900F900D
:101190000F900F90CF91DF910895DF93CF9300D000
:1011A00000D00F92CDB7DEB78A836B8381E089834D
:1011B0008A81843098F58A81282F30E03D832C8302
:1011C0008C819D8181309105D1F02C813D8122302F
:1011D00031052CF48C819D81009761F020C02C8119
:1011E0003D812230310581F08C819D8183309105D4
:1011F00081F015C0EBE3F0E08B81808310C0E8E361
:10120000F0E08B8180830BC0E5E3F0E08B8180838D
:1012100006C0E2E3F0E08B81808301C019828981FE
:101220000F900F900F900F900F90CF91DF91089536
:10123000DF93CF93CDB7DEB727970FB6F894DEBF15
:101240000FBECDBF8B837D836C8381E08A838B81CE
:10125000843008F03FC08C819D810097D9F18B814B
:10126000282F30E03F832E838E819F81813091052E
:10127000E1F02E813F81223031052CF48E819F8157
:10128000009761F028C02E813F8122303105A1F006
:101290008E819F8183309105B1F01DC0E9E3F0E0BC
:1012A0008081EC81FD81808316C0E6E3F0E08081DF
:1012B000EC81FD8180830FC0E3E3F0E08081EC816D
:1012C000FD81808308C0E0E3F0E08081EC81FD8156
:1012D000808301C019828A8127960FB6F894DEBFF9
:1012E0000FBECDBFCF91DF910895DF93CF93CDB7E0
:1012F000DEB781E060EF0E94820881E06FEF0E941C
:10130000CD08CF91DF910895DF93CF9300D000D027
:10131000CDB7DEB719821B8232C08B81982F9C5FBC
:1013200081E0692F40E00E94C6061A821AC09E0121
:101330002C5F3F4F81E06A81A9010E94E9078C81FF
:10134000882361F48A81882F90E0880F991F880F85
:10135000991F982F8B81890F8F5F89838A818F5F77
:101360008A838A81843018F38B81982F9C5F81E077
:10137000692F41E00E94C6068B818F5F8B838B8132
:10138000843058F289810F900F900F900F90CF9179
:10139000DF910895DF93CF93CDB7DEB7E8970FB60F
:1013A000F894DEBF0FBECDBF83E06FEF0E948208CE
:1013B00082E067E00E94820880E090E0A0EFB1E464
:1013C0008DAB9EABAFABB8AF6DA97EA98FA998AD21
:1013D00020E030E04AEF54E40E941F02DC01CB0120
:1013E00089AB9AABABABBCAB69A97AA98BA99CA919
:1013F00020E030E040E85FE30E94790388232CF48A
:1014000081E090E098AB8FA73FC069A97AA98BA92A
:101410009CA920E03FEF4FE757E40E9419031816FC
:101420004CF56DA97EA98FA998AD20E030E040E28F
:1014300051E40E941F02DC01CB01BC01CD010E94DE
:101440004900DC01CB0198AB8FA70FC088EC90E07E
:101450009EA78DA78DA59EA50197F1F79EA78DA7A5
:101460008FA598A9019798AB8FA78FA598A90097EA
:1014700069F714C069A97AA98BA99CA90E9449009F
:10148000DC01CB0198AB8FA78FA598A99CA78BA750
:101490008BA59CA50197F1F79CA78BA78CE30E94D5
:1014A000B60B80E090E0A0E8BFE38FA398A7A9A7C0
:1014B000BAA76FA178A589A59AA520E030E04AEFE8
:1014C00054E40E941F02DC01CB018BA39CA3ADA3BB
:1014D000BEA36BA17CA18DA19EA120E030E040E8DD
:1014E0005FE30E94790388232CF481E090E09AA3C3
:1014F00089A33FC06BA17CA18DA19EA120E03FEFFD
:101500004FE757E40E94190318164CF56FA178A510
:1015100089A59AA520E030E040E251E40E941F0234
:10152000DC01CB01BC01CD010E944900DC01CB01F3
:101530009AA389A30FC088EC90E098A38F8F8F8D1A
:1015400098A10197F1F798A38F8F89A19AA101978C
:101550009AA389A389A19AA1009769F714C06BA1E6
:101560007CA18DA19EA10E944900DC01CB019AA320
:1015700089A389A19AA19E8F8D8F8D8D9E8D0197B4
:10158000F1F79E8F8D8F8FE00E94B60B80E090E088
:10159000A0E8BFE3898F9A8FAB8FBC8F698D7A8D5E
:1015A0008B8D9C8D20E030E04AEF54E40E941F02B6
:1015B000DC01CB018D8B9E8BAF8BB88F6D897E89C3
:1015C0008F89988D20E030E040E85FE30E94790346
:1015D00088232CF481E090E09C8B8B8B3FC06D893D
:1015E0007E898F89988D20E03FEF4FE757E40E9476
:1015F000190318164CF5698D7A8D8B8D9C8D20E022
:1016000030E040E251E40E941F02DC01CB01BC014A
:10161000CD010E944900DC01CB019C8B8B8B0FC05C
:1016200088EC90E09A8B898B89899A890197F1F7E8
:101630009A8B898B8B899C8901979C8B8B8B8B894F
:101640009C89009769F714C06D897E898F89988D70
:101650000E944900DC01CB019C8B8B8B8B899C8980
:10166000988B8F878F8598890197F1F7988B8F8753
:1016700081E00E94B60B80E090E0A0E0B0E48B87B0
:101680009C87AD87BE876B857C858D859E8520E098
:1016900030E04AEF54E40E941F02DC01CB018F834B
:1016A0009887A987BA876F81788589859A8520E090
:1016B00030E040E85FE30E94790388232CF481E066
:1016C00090E09E838D833FC06F81788589859A8560
:1016D00020E03FEF4FE757E40E94190318164CF53E
:1016E0006B857C858D859E8520E030E040E251E46D
:1016F0000E941F02DC01CB01BC01CD010E94490008
:10170000DC01CB019E838D830FC088EC90E09C832D
:101710008B838B819C810197F1F79C838B838D81D7
:101720009E8101979E838D838D819E81009769F7AD
:1017300014C06F81788589859A850E944900DC01F3
:10174000CB019E838D838D819E819A83898389813C
:101750009A810197F1F79A838983E8960FB6F894F6
:10176000DEBF0FBECDBFCF91DF910895DF93CF9342
:10177000CDB7DEB72F970FB6F894DEBF0FBECDBF43
:101780008F8782E060E040E00E94C60682E061E070
:1017900040E00E94C60683E06F850E94CD0882E08B
:1017A00062E041E00E94C60680E090E0A0E0B0E484
:1017B0008B879C87AD87BE876B857C858D859E8555
:1017C00020E030E04AEF54E40E941F02DC01CB012C
:1017D0008F839887A987BA876F81788589859A854D
:1017E00020E030E040E85FE30E94790388232CF496
:1017F00081E090E09E838D833FC06F8178858985ED
:101800009A8520E03FEF4FE757E40E94190318162E
:101810004CF56B857C858D859E8520E030E040E22F
:1018200051E40E941F02DC01CB01BC01CD010E94EA
:101830004900DC01CB019E838D830FC088EC90E0D2
:101840009C838B838B819C810197F1F79C838B8395
:101850008D819E8101979E838D838D819E810097CE
:1018600069F714C06F81788589859A850E9449003F
:10187000DC01CB019E838D838D819E819A83898338
:1018800089819A810197F1F79A83898382E062E0E6
:1018900040E00E94C6062F960FB6F894DEBF0FBE3A
:1018A000CDBFCF91DF910895DF93CF93CDB7DEB752
:1018B0002F970FB6F894DEBF0FBECDBF8F8782E0A3
:1018C00060E041E00E94C60682E061E040E00E94E4
:1018D000C60683E06F850E94CD0882E062E041E0A9
:1018E0000E94C60680E090E0A0E0B0E48B879C8771
:1018F000AD87BE876B857C858D859E8520E030E039
:101900004AEF54E40E941F02DC01CB018F839887C9
:10191000A987BA876F81788589859A8520E030E02C
:1019200040E85FE30E94790388232CF481E090E093
:101930009E838D833FC06F81788589859A8520E05D
:101940003FEF4FE757E40E94190318164CF56B85DB
:101950007C858D859E8520E030E040E251E40E9448
:101960001F02DC01CB01BC01CD010E944900DC015A
:10197000CB019E838D830FC088EC90E09C838B838A
:101980008B819C810197F1F79C838B838D819E8154
:1019900001979E838D838D819E81009769F714C086
:1019A0006F81788589859A850E944900DC01CB0189
:1019B0009E838D838D819E819A83898389819A817B
:1019C0000197F1F79A83898382E062E040E00E9408
:1019D000C6062F960FB6F894DEBF0FBECDBFCF91CF
:1019E000DF910895DF93CF9300D0CDB7DEB7898321
:1019F0006A838A81882329F4898180580E94B60BE2
:101A000004C0898180540E94B60B0F900F90CF9133
:101A1000DF910895DF93CF93CDB7DEB781E00E94C9
:101A2000B60BCF91DF910895DF93CF93CDB7DEB79B
:101A300080E40E94B60BCF91DF910895DF93CF939E
:101A4000CDB7DEB780E80E94B60BCF91DF91089545
:101A5000DF93CF93CDB7DEB728970FB6F894DEBFEC
:101A60000FBECDBF98878F831E821D821C821B8272
:101A70001A8219828F819885009721F480E30E9451
:101A8000540C10C18F819885009751F08F819885F3
:101A90008A30910528F48F81805D0E94540C02C128
:101AA0008F8198858A309105F8F08F8198858436EA
:101AB0009105D0F48F8198852AE030E0B9010E9429
:101AC000C620CB018E838F8198852AE030E0B90152
:101AD0000E94C6208D838E81805D0E94540C8D8172
:101AE000805D0E94540CDEC08F81988584369105FC
:101AF00088F18F81988523E0883E920758F58F8181
:101B0000988524E630E0B9010E94C620CB018E837F
:101B10008F81988524E630E0B9010E94C6208D832C
:101B20008D819AE0692F0E94BA2089838D819AE085
:101B3000692F0E94BA20892F8C838E81805D0E943C
:101B4000540C8981805D0E94540C8C81805D0E94C0
:101B5000540CA8C08F81988523E0883E920708F432
:101B600044C08F81988527E280319207F0F58F81FC
:101B7000988528EE33E0B9010E94C620CB018E8300
:101B80008F81988528EE33E0B9010E94C6208983B1
:101B9000898194E6692F0E94BA208D83898194E619
:101BA000692F0E94BA20892F8C838C818983898137
:101BB0009AE0692F0E94BA208C8389819AE0692F6C
:101BC0000E94BA20892F8B838E81805D0E94540CE5
:101BD0008D81805D0E94540C8C81805D0E94540C2C
:101BE0008B81805D0E94540C5DC08F81988527E2B7
:101BF0008031920708F456C08F81988528EE33E033
:101C0000B9010E94C620CB018E838F81988520E187
:101C100037E2B9010E94C62089838981882F90E02C
:101C200028EE33E0B9010E94DA20CB018D8389814F
:101C3000882F90E028EE33E0B9010E94DA208C83EF
:101C40008C818983898194E6692F0E94BA208C83D4
:101C5000898194E6692F0E94BA20892F8B838B811A
:101C6000898389819AE0692F0E94BA208B838981B8
:101C70009AE0692F0E94BA20892F8A838E81805D25
:101C80000E94540C8D81805D0E94540C8C81805D7B
:101C90000E94540C8B81805D0E94540C8A81805D6F
:101CA0000E94540C28960FB6F894DEBF0FBECDBF2D
:101CB000CF91DF910895DF93CF93CDB7DEB729970A
:101CC0000FB6F894DEBF0FBECDBF998788871D82FF
:101CD0001C821B821A8219828885998599235CF45B
:101CE0008DE20E94540C88859985909581959F4F2F
:101CF0009F838E8304C0888599859F838E838E8180
:101D00009F81009721F480E30E94540CB2C08E8121
:101D10009F81009751F08E819F818A30910528F430
:101D20008E81805D0E94540CA4C08E819F818A3078
:101D30009105F8F08E819F8184369105D0F48E81D3
:101D40009F812AE030E0B9010E94C620CB018D833B
:101D50008E819F812AE030E0B9010E94C6208C83E9
:101D60008D81805D0E94540C8C81805D0E94540C9A
:101D700080C08E819F818436910588F18E819F81FC
:101D800023E0883E920758F58E819F8124E630E05B
:101D9000B9010E94C620CB018D838E819F8124E6EC
:101DA00030E0B9010E94C6208C838C819AE0692FB3
:101DB0000E94BA2089838C819AE0692F0E94BA2000
:101DC000892F8B838D81805D0E94540C8981805D79
:101DD0000E94540C8B81805D0E94540C4AC08E81FD
:101DE0009F8123E0883E920708F443C08E819F8143
:101DF00027E280319207E8F58E819F8128EE33E05B
:101E0000B9010E94C620CB018D838E819F8128EE6F
:101E100033E0B9010E94C6208983898194E6692F45
:101E20000E94BA208C83898194E6692F0E94BA208F
:101E3000892F8B838B81898389819AE0692F0E9406
:101E4000BA208B8389819AE0692F0E94BA20892F5A
:101E50008A838D81805D0E94540C8C81805D0E94FC
:101E6000540C8B81805D0E94540C8A81805D0E949D
:101E7000540C29960FB6F894DEBF0FBECDBFCF919C
:101E8000DF910895DF93CF93CDB7DEB728970FB6D4
:101E9000F894DEBF0FBECDBF9E838D8378876F839E
:101EA0008D819E812F813885B9010E94C6200097BF
:101EB00079F48D819E812F813885B9010E94C620D9
:101EC000CB019C838B838B819C810E94280D1EC03B
:101ED0008D819E812F813885B9010E94C620CB015A
:101EE0009C838B838B819C810E94280D8EE20E94B3
:101EF000540C8D819E812F813885B9010E94C620A6
:101F00009A83898389819A810E94280D28960FB629
:101F1000F894DEBF0FBECDBFCF91DF910895DF9360
:101F2000CF9300D000D0CDB7DEB79C838B831982CE
:101F300003C089818F5F89838981282F30E08B815D
:101F40009C81FC01E20FF31F8081882391F71A82A4
:101F50000FC08A81282F30E08B819C81FC01E20F29
:101F6000F31F8081805D0E94540C8A818F5F8A8379
:101F70009A818981891768F70F900F900F900F90C1
:101F8000CF91DF910895DF93CF93CDB7DEB70E9455
:101F9000CA090E9475090E94D60F809113010E9400
:101FA00049100E94D6120E941320F7CFDF93CF93DF
:101FB000CDB7DEB782E080936C0010926D00809107
:101FC0006D00282F332727FD309580916C00482F16
:101FD000552747FD509560916900C901880F991FE9
:101FE0009C01220F331F220F331F820F931F840F78
:101FF000951FFC01ED53FF4F608383E080936C00DD
:1020000010926D0080916D00282F332727FD3095A9
:1020100080916C00482F552747FD509560916A00CC
:10202000C901880F991F9C01220F331F220F331FF4
:10203000820F931F840F951FFC01ED53FF4F6083A8
:1020400084E080936C0010926D0080916D00282FC9
:10205000332727FD309580916C00482F552747FD89
:10206000509560916800C901880F991F9C01220F4B
:10207000331F220F331F820F931F840F951FFC0104
:10208000ED53FF4F608381E08093F000CF91DF91AB
:102090000895DF93CF930F92CDB7DEB789830E9467
:1020A000840989838981882319F480917100898347
:1020B0008981823009F09AC080916D0081508093AF
:1020C0006D0080916D00282F332727FD309580917A
:1020D0006C00482F552747FD5095C901880F991F5F
:1020E0009C01220F331F220F331F820F931F840F77
:1020F000951FFC01ED53FF4F8081813021F481E079
:1021000080936F0002C010926F0080916D00882351
:102110004CF1809169008F5F809369008091680025
:102120008F5F8093680080916D00282F332727FDF3
:10213000309580916C00482F552747FD5095609150
:102140006800C901880F991F9C01220F331F220FBD
:10215000331F820F931F840F951FFC01ED53FF4F18
:10216000608302C010926D0080916D00282F33278C
:1021700027FD309580916C00482F552747FD5095DD
:10218000C901880F991F9C01220F331F220F331F93
:10219000820F931F840F951FFC01EE58FF4F808123
:1021A000813009F580916D00282F332727FD309568
:1021B00080916C00482F552747FD5095C901880F25
:1021C000991F9C01220F331F220F331F820F931F71
:1021D000840F951FFC01ED53FF4F908180916800A3
:1021E000981709F4FFCF8981809371008981863027
:1021F00009F09BC080916D008F5F80936D0080918E
:102200006D00282F332727FD309580916C00482FD3
:10221000552747FD5095C901880F991F9C01220F32
:10222000331F220F331F820F931F840F951FFC0152
:10223000ED53FF4F8081813021F481E080936F0066
:1022400002C010926F0080916D0088304CF5809133
:1022500069008F5F80936900809168008F5F809331
:10226000680080916D00282F332727FD30958091DD
:102270006C00482F552747FD509560916800C901B3
:10228000880F991F9C01220F331F220F331F820FCB
:10229000931F840F951FFC01ED53FF4F608303C014
:1022A00087E080936D0080916D00282F332727FDF4
:1022B000309580916C00482F552747FD5095C901F6
:1022C000880F991F9C01220F331F220F331F820F8B
:1022D000931F840F951FFC01EE58FF4F80818130C2
:1022E00009F580916D00282F332727FD30958091C7
:1022F0006C00482F552747FD5095C901880F991F3D
:102300009C01220F331F220F331F820F931F840F54
:10231000951FFC01ED53FF4F908180916800981745
:1023200009F4FFCF8981809371008981853009F09C
:102330009AC080916C00815080936C0080916D00F8
:10234000282F332727FD309580916C00482F552783
:1023500047FD5095C901880F991F9C01220F331F1B
:10236000220F331F820F931F840F951FFC01ED5323
:10237000FF4F8081813021F481E080936F0002C0A3
:1023800010926F0080916C0088234CF1809169005D
:102390008F5F80936900809168008F5F80936800F1
:1023A00080916D00282F332727FD309580916C0098
:1023B000482F552747FD509560916800C901880F47
:1023C000991F9C01220F331F220F331F820F931F6F
:1023D000840F951FFC01ED53FF4F608302C01092E4
:1023E0006C0080916D00282F332727FD3095809158
:1023F0006C00482F552747FD5095C901880F991F3C
:102400009C01220F331F220F331F820F931F840F53
:10241000951FFC01EE58FF4F8081813009F58091B6
:102420006D00282F332727FD309580916C00482FB1
:10243000552747FD5095C901880F991F9C01220F10
:10244000331F220F331F820F931F840F951FFC0130
:10245000ED53FF4F908180916800981709F4FFCFEA
:102460008981809371008981873009F09BC08091B8
:102470006C008F5F80936C0080916D00282F332754
:1024800027FD309580916C00482F552747FD5095CA
:10249000C901880F991F9C01220F331F220F331F80
:1024A000820F931F840F951FFC01ED53FF4F808116
:1024B000813021F481E080936F0002C010926F00A0
:1024C00080916C008A304CF5809169008F5F809319
:1024D0006900809168008F5F8093680080916D0033
:1024E000282F332727FD309580916C00482F5527E2
:1024F00047FD509560916800C901880F991F9C01A4
:10250000220F331F220F331F820F931F840F951F3B
:10251000FC01ED53FF4F608303C089E080936C00A2
:1025200080916D00282F332727FD309580916C0016
:10253000482F552747FD5095C901880F991F9C01C9
:10254000220F331F220F331F820F931F840F951FFB
:10255000FC01EE58FF4F8081813009F580916D00BC
:10256000282F332727FD309580916C00482F552761
:1025700047FD5095C901880F991F9C01220F331FF9
:10258000220F331F820F931F840F951FFC01ED5301
:10259000FF4F908180916800981709F4FFCF8981DF
:1025A000809371000F90CF91DF910895DF93CF93C7
:1025B00000D0CDB7DEB7109224010C940820109201
:1025C000C2000C94FD1F10926E008091C200282F53
:1025D00030E03A83298389819A818430910509F416
:1025E00056C529813A8125303105FCF489819A81CB
:1025F0008130910509F485C129813A812230310564
:1026000034F489819A810097D1F10C94F81F2981C3
:102610003A812230310509F4B6C289819A8183302A
:10262000910509F4F2C30C94F81F29813A812730EF
:10263000310511F40C941F1C89819A818830910511
:1026400074F429813A812530310509F478C68981ED
:102650009A818630910509F4B2C70C94F81F29813C
:102660003A812830310511F40C945F1D89819A81DB
:102670008930910511F40C949F1E0C94F81F8091E1
:102680002401282F30E08091C200482F50E0C9017A
:10269000880F991F9C01220F331F220F331F820FB7
:1026A000931F840F951FFC01ED53FF4F9081809184
:1026B0006800981741F480917000806180937000E9
:1026C00081E080936E0080912401282F30E080917A
:1026D000C200482F50E0C901880F991F9C01220FAA
:1026E000331F220F331F820F931F840F951FFC018E
:1026F000ED53FF4F908180916900981709F5809103
:102700002401282F30E08091C200482F50E0C901F9
:10271000880F991F9C01220F331F220F331F820F36
:10272000931F840F951FFC01EE58FF4F81E08083BB
:102730008091700080618093700081E080936E00D2
:1027400080912401282F30E08091C200482F50E072
:10275000C901880F991F9C01220F331F220F331FBD
:10276000820F931F840F951FFC01ED53FF4F908143
:10277000809168009817E9F180912401282F30E0BA
:102780008091C200482F50E0C901880F991F9C0119
:10279000220F331F220F331F820F931F840F951FA9
:1027A000FC01ED53FF4F908180916900891708F576
:1027B00080912401282F30E08091C200482F50E002
:1027C000C901880F991F9C01220F331F220F331F4D
:1027D000820F931F840F951FFC01EE58FF4F81E07D
:1027E00080838091700080618093700081E080938D
:1027F0006E0080912401282F30E08091C200482F84
:1028000050E0C901880F991F9C01220F331F220F2E
:10281000331F820F931F840F951FFC01ED53FF4F51
:102820008081882311F180912401282F30E080914C
:10283000C200482F50E0C901880F991F9C01220F48
:10284000331F220F331F820F931F840F951FFC012C
:10285000ED53FF4F8081823040F4809170008061A1
:102860008093700081E080936E0080912401282F76
:1028700030E08091C200482F50E0C901880F991FB5
:102880009C01220F331F220F331F820F931F840FCF
:10289000951FFC01ED53FF4F9081809168009817C0
:1028A00049F480916F00813029F480916900825051
:1028B0008093690080916E00813021F410926E0047
:1028C0000C94F81F80912401282F30E08091C200E1
:1028D000482F50E0C901880F991F9C01220F331F18
:1028E000220F331F820F931F840F951FFC01EE5898
:1028F000FF4F1082809170008F7E809370000C9447
:10290000F81F80912401282F30E08091C200482FC9
:1029100050E0C901880F991F9C01220F331F220F1D
:10292000331F820F931F840F951FFC01ED53FF4F40
:10293000908180916800981741F4809170008860C0
:102940008093700081E080936E0080912401282F95
:1029500030E08091C200482F50E0C901880F991FD4
:102960009C01220F331F220F331F820F931F840FEE
:10297000951FFC01ED53FF4F9081809169009817DE
:1029800009F580912401282F30E08091C200482F62
:1029900050E0C901880F991F9C01220F331F220F9D
:1029A000331F820F931F840F951FFC01EE58FF4FBA
:1029B00081E080838091700088608093700081E066
:1029C00080936E0080912401282F30E08091C20016
:1029D000482F50E0C901880F991F9C01220F331F17
:1029E000220F331F820F931F840F951FFC01ED539D
:1029F000FF4F9081809168009817E9F18091240140
:102A0000282F30E08091C200482F50E0C901880F84
:102A1000991F9C01220F331F220F331F820F931F18
:102A2000840F951FFC01ED53FF4F90818091690049
:102A3000891708F580912401282F30E08091C20089
:102A4000482F50E0C901880F991F9C01220F331FA6
:102A5000220F331F820F931F840F951FFC01EE5826
:102A6000FF4F81E0808380917000886080937000C8
:102A700081E080936E0080912401282F30E08091C6
:102A8000C200482F50E0C901880F991F9C01220FF6
:102A9000331F220F331F820F931F840F951FFC01DA
:102AA000ED53FF4F8081882311F180912401282F5D
:102AB00030E08091C200482F50E0C901880F991F73
:102AC0009C01220F331F220F331F820F931F840F8D
:102AD000951FFC01ED53FF4F8081823040F48091BF
:102AE000700080618093700081E080936E0080911F
:102AF0002401282F30E08091C200482F50E0C90106
:102B0000880F991F9C01220F331F220F331F820F42
:102B1000931F840F951FFC01ED53FF4F908180910F
:102B20006800981749F480916F00813029F48091F2
:102B3000690082508093690080916E00813021F499
:102B400010926E000C94F81F80912401282F30E021
:102B50008091C200482F50E0C901880F991F9C0145
:102B6000220F331F220F331F820F931F840F951FD5
:102B7000FC01EE58FF4F108280917000877F809398
:102B800070000C94F81F80912401282F30E0809170
:102B9000C200482F50E0C901880F991F9C01220FE5
:102BA000331F220F331F820F931F840F951FFC01C9
:102BB000ED53FF4F908180916800981741F4809108
:102BC000700084608093700081E080936E0080913B
:102BD0002401282F30E08091C200482F50E0C90125
:102BE000880F991F9C01220F331F220F331F820F62
:102BF000931F840F951FFC01ED53FF4F908180912F
:102C00006900981709F580912401282F30E0809100
:102C1000C200482F50E0C901880F991F9C01220F64
:102C2000331F220F331F820F931F840F951FFC0148
:102C3000EE58FF4F81E08083809170008460809324
:102C4000700081E080936E0080912401282F30E095
:102C50008091C200482F50E0C901880F991F9C0144
:102C6000220F331F220F331F820F931F840F951FD4
:102C7000FC01ED53FF4F9081809168009817E9F1B6
:102C800080912401282F30E08091C200482F50E02D
:102C9000C901880F991F9C01220F331F220F331F78
:102CA000820F931F840F951FFC01ED53FF4F9081FE
:102CB00080916900891708F580912401282F30E060
:102CC0008091C200482F50E0C901880F991F9C01D4
:102CD000220F331F220F331F820F931F840F951F64
:102CE000FC01EE58FF4F81E080838091700084608A
:102CF0008093700081E080936E0080912401282FE2
:102D000030E08091C200482F50E0C901880F991F20
:102D10009C01220F331F220F331F820F931F840F3A
:102D2000951FFC01ED53FF4F8081882311F18091A5
:102D30002401282F30E08091C200482F50E0C901C3
:102D4000880F991F9C01220F331F220F331F820F00
:102D5000931F840F951FFC01ED53FF4F808182303C
:102D600040F48091700080618093700081E08093D6
:102D70006E0080912401282F30E08091C200482FFE
:102D800050E0C901880F991F9C01220F331F220FA9
:102D9000331F820F931F840F951FFC01ED53FF4FCC
:102DA000908180916800981749F480916F0081307C
:102DB00029F48091690082508093690080916E00AF
:102DC000813021F410926E000C94F81F8091240140
:102DD000282F30E08091C200482F50E0C901880FB1
:102DE000991F9C01220F331F220F331F820F931F45
:102DF000840F951FFC01EE58FF4F108280917000E8
:102E00008B7F809370000C94F81F80912401282FF1
:102E100030E08091C200482F50E0C901880F991F0F
:102E20009C01220F331F220F331F820F931F840F29
:102E3000951FFC01ED53FF4F90818091680098171A
:102E400041F48091700082608093700081E08093F3
:102E50006E0080912401282F30E08091C200482F1D
:102E600050E0C901880F991F9C01220F331F220FC8
:102E7000331F820F931F840F951FFC01ED53FF4FEB
:102E8000908180916900981709F580912401282F7D
:102E900030E08091C200482F50E0C901880F991F8F
:102EA0009C01220F331F220F331F820F931F840FA9
:102EB000951FFC01EE58FF4F81E0808380917000E8
:102EC00082608093700081E080936E008091240185
:102ED000282F30E08091C200482F50E0C901880FB0
:102EE000991F9C01220F331F220F331F820F931F44
:102EF000840F951FFC01ED53FF4F90818091680076
:102F00009817E9F180912401282F30E08091C200C8
:102F1000482F50E0C901880F991F9C01220F331FD1
:102F2000220F331F820F931F840F951FFC01ED5357
:102F3000FF4F908180916900891708F580912401E5
:102F4000282F30E08091C200482F50E0C901880F3F
:102F5000991F9C01220F331F220F331F820F931FD3
:102F6000840F951FFC01EE58FF4F81E08083809114
:102F7000700082608093700081E080936E00809189
:102F80002401282F30E08091C200482F50E0C90171
:102F9000880F991F9C01220F331F220F331F820FAE
:102FA000931F840F951FFC01ED53FF4F80818823F1
:102FB00011F180912401282F30E08091C200482F28
:102FC00050E0C901880F991F9C01220F331F220F67
:102FD000331F820F931F840F951FFC01ED53FF4F8A
:102FE0008081823040F48091700080618093700015
:102FF00081E080936E0080912401282F30E0809141
:10300000C200482F50E0C901880F991F9C01220F70
:10301000331F220F331F820F931F840F951FFC0154
:10302000ED53FF4F908180916800981749F480918B
:103030006F00813029F4809169008250809369008B
:1030400080916E00813021F410926E000C94F81F74
:1030500080912401282F30E08091C200482F50E059
:10306000C901880F991F9C01220F331F220F331FA4
:10307000820F931F840F951FFC01EE58FF4F1082A3
:10308000809170008D7F809370000C94F81F809168
:103090002401282F30E08091C200482F50E0C90160
:1030A000880F991F9C01220F331F220F331F820F9D
:1030B000931F840F951FFC01ED53FF4F908180916A
:1030C0006800981741F480917000816080937000CF
:1030D00081E080936E0080912401282F30E0809160
:1030E000C200482F50E0C901880F991F9C01220F90
:1030F000331F220F331F820F931F840F951FFC0174
:10310000ED53FF4F908180916900981709F58091E8
:103110002401282F30E08091C200482F50E0C901DF
:10312000880F991F9C01220F331F220F331F820F1C
:10313000931F840F951FFC01EE58FF4F81E08083A1
:103140008091700081608093700081E080936E00B8
:1031500080912401282F30E08091C200482F50E058
:10316000C901880F991F9C01220F331F220F331FA3
:10317000820F931F840F951FFC01ED53FF4F908129
:10318000809168009817E9F180912401282F30E0A0
:103190008091C200482F50E0C901880F991F9C01FF
:1031A000220F331F220F331F820F931F840F951F8F
:1031B000FC01ED53FF4F908180916900891708F55C
:1031C00080912401282F30E08091C200482F50E0E8
:1031D000C901880F991F9C01220F331F220F331F33
:1031E000820F931F840F951FFC01EE58FF4F81E063
:1031F00080838091700081608093700081E0809373
:103200006E0080912401282F30E08091C200482F69
:1032100050E0C901880F991F9C01220F331F220F14
:10322000331F820F931F840F951FFC01ED53FF4F37
:103230008081882311F180912401282F30E0809132
:10324000C200482F50E0C901880F991F9C01220F2E
:10325000331F220F331F820F931F840F951FFC0112
:10326000ED53FF4F8081823040F480917000806187
:103270008093700081E080936E0080912401282F5C
:1032800030E08091C200482F50E0C901880F991F9B
:103290009C01220F331F220F331F820F931F840FB5
:1032A000951FFC01ED53FF4F9081809168009817A6
:1032B00049F480916F00813029F480916900825037
:1032C0008093690080916E00813079F480912401AF
:1032D000882F90E020917000FC01EC5EFE4F20836F
:1032E0001092700010926E0083C680912401282FE6
:1032F00030E08091C200482F50E0C901880F991F2B
:103300009C01220F331F220F331F820F931F840F44
:10331000951FFC01EE58FF4F1082809170008E7F48
:103320008093700080912401882F90E0209170009C
:10333000FC01EC5EFE4F20831092700059C6809114
:103340002401282F30E08091C200482F50E0C901AD
:10335000880F991F9C01220F331F220F331F820FEA
:10336000931F840F951FFC01ED53FF4F90818091B7
:103370006800981741F4809170008061809370001C
:1033800081E080936E0080912401282F30E08091AD
:10339000C200482F50E0C901880F991F9C01220FDD
:1033A000331F220F331F820F931F840F951FFC01C1
:1033B000ED53FF4F908180916900981709F5809136
:1033C0002401282F30E08091C200482F50E0C9012D
:1033D000880F991F9C01220F331F220F331F820F6A
:1033E000931F840F951FFC01EE58FF4F81E08083EF
:1033F0008091700080618093700081E080936E0006
:1034000080912401282F30E08091C200482F50E0A5
:10341000C901880F991F9C01220F331F220F331FF0
:10342000820F931F840F951FFC01ED53FF4F908176
:10343000809168009817E9F180912401282F30E0ED
:103440008091C200482F50E0C901880F991F9C014C
:10345000220F331F220F331F820F931F840F951FDC
:10346000FC01ED53FF4F908180916900891708F5A9
:1034700080912401282F30E08091C200482F50E035
:10348000C901880F991F9C01220F331F220F331F80
:10349000820F931F840F951FFC01EE58FF4F81E0B0
:1034A00080838091700080618093700081E08093C0
:1034B0006E0080912401282F30E08091C200482FB7
:1034C00050E0C901880F991F9C01220F331F220F62
:1034D000331F820F931F840F951FFC01ED53FF4F85
:1034E0008081882311F180912401282F30E0809180
:1034F000C200482F50E0C901880F991F9C01220F7C
:10350000331F220F331F820F931F840F951FFC015F
:10351000ED53FF4F8081823040F4809170008061D4
:103520008093700081E080936E0080912401282FA9
:1035300030E08091C200482F50E0C901880F991FE8
:103540009C01220F331F220F331F820F931F840F02
:10355000951FFC01ED53FF4F9081809168009817F3
:1035600049F480916F00813029F480916900825084
:103570008093690080916E00813019F410926E0082
:1035800037C580912401282F30E08091C200482F58
:1035900050E0C901880F991F9C01220F331F220F91
:1035A000331F820F931F840F951FFC01EE58FF4FAE
:1035B0001082809170008F7E8093700019C5809179
:1035C0002401282F30E08091C200482F50E0C9012B
:1035D000880F991F9C01220F331F220F331F820F68
:1035E000931F840F951FFC01ED53FF4F9081809135
:1035F0006800981741F48091700088608093700093
:1036000081E080936E0080912401282F30E080912A
:10361000C200482F50E0C901880F991F9C01220F5A
:10362000331F220F331F820F931F840F951FFC013E
:10363000ED53FF4F908180916900981709F58091B3
:103640002401282F30E08091C200482F50E0C901AA
:10365000880F991F9C01220F331F220F331F820FE7
:10366000931F840F951FFC01EE58FF4F81E080836C
:103670008091700088608093700081E080936E007C
:1036800080912401282F30E08091C200482F50E023
:10369000C901880F991F9C01220F331F220F331F6E
:1036A000820F931F840F951FFC01ED53FF4F9081F4
:1036B000809168009817E9F180912401282F30E06B
:1036C0008091C200482F50E0C901880F991F9C01CA
:1036D000220F331F220F331F820F931F840F951F5A
:1036E000FC01ED53FF4F908180916900891708F527
:1036F00080912401282F30E08091C200482F50E0B3
:10370000C901880F991F9C01220F331F220F331FFD
:10371000820F931F840F951FFC01EE58FF4F81E02D
:1037200080838091700088608093700081E0809336
:103730006E0080912401282F30E08091C200482F34
:1037400050E0C901880F991F9C01220F331F220FDF
:10375000331F820F931F840F951FFC01ED53FF4F02
:103760008081882311F180912401282F30E08091FD
:10377000C200482F50E0C901880F991F9C01220FF9
:10378000331F220F331F820F931F840F951FFC01DD
:10379000ED53FF4F8081823040F480917000806152
:1037A0008093700081E080936E0080912401282F27
:1037B00030E08091C200482F50E0C901880F991F66
:1037C0009C01220F331F220F331F820F931F840F80
:1037D000951FFC01ED53FF4F908180916800981771
:1037E00049F480916F00813029F480916900825002
:1037F0008093690080916E00813019F410926E0000
:10380000F7C380912401282F30E08091C200482F17
:1038100050E0C901880F991F9C01220F331F220F0E
:10382000331F820F931F840F951FFC01EE58FF4F2B
:10383000108280917000877F80937000D9C380913F
:103840002401282F30E08091C200482F50E0C901A8
:10385000880F991F9C01220F331F220F331F820FE5
:10386000931F840F951FFC01ED53FF4F90818091B2
:103870006800981741F48091700084608093700014
:1038800081E080936E0080912401282F30E08091A8
:10389000C200482F50E0C901880F991F9C01220FD8
:1038A000331F220F331F820F931F840F951FFC01BC
:1038B000ED53FF4F908180916900981709F5809131
:1038C0002401282F30E08091C200482F50E0C90128
:1038D000880F991F9C01220F331F220F331F820F65
:1038E000931F840F951FFC01EE58FF4F81E08083EA
:1038F0008091700084608093700081E080936E00FE
:1039000080912401282F30E08091C200482F50E0A0
:10391000C901880F991F9C01220F331F220F331FEB
:10392000820F931F840F951FFC01ED53FF4F908171
:10393000809168009817E9F180912401282F30E0E8
:103940008091C200482F50E0C901880F991F9C0147
:10395000220F331F220F331F820F931F840F951FD7
:10396000FC01ED53FF4F908180916900891708F5A4
:1039700080912401282F30E08091C200482F50E030
:10398000C901880F991F9C01220F331F220F331F7B
:10399000820F931F840F951FFC01EE58FF4F81E0AB
:1039A00080838091700084608093700081E08093B8
:1039B0006E0080912401282F30E08091C200482FB2
:1039C00050E0C901880F991F9C01220F331F220F5D
:1039D000331F820F931F840F951FFC01ED53FF4F80
:1039E0008081882311F180912401282F30E080917B
:1039F000C200482F50E0C901880F991F9C01220F77
:103A0000331F220F331F820F931F840F951FFC015A
:103A1000ED53FF4F8081823040F4809170008061CF
:103A20008093700081E080936E0080912401282FA4
:103A300030E08091C200482F50E0C901880F991FE3
:103A40009C01220F331F220F331F820F931F840FFD
:103A5000951FFC01ED53FF4F9081809168009817EE
:103A600049F480916F00813029F48091690082507F
:103A70008093690080916E00813019F410926E007D
:103A8000B7C280912401282F30E08091C200482FD6
:103A900050E0C901880F991F9C01220F331F220F8C
:103AA000331F820F931F840F951FFC01EE58FF4FA9
:103AB0001082809170008B7F8093700099C28091FA
:103AC0002401282F30E08091C200482F50E0C90126
:103AD000880F991F9C01220F331F220F331F820F63
:103AE000931F840F951FFC01ED53FF4F9081809130
:103AF0006800981741F48091700082608093700094
:103B000081E080936E0080912401282F30E0809125
:103B1000C200482F50E0C901880F991F9C01220F55
:103B2000331F220F331F820F931F840F951FFC0139
:103B3000ED53FF4F908180916900981709F58091AE
:103B40002401282F30E08091C200482F50E0C901A5
:103B5000880F991F9C01220F331F220F331F820FE2
:103B6000931F840F951FFC01EE58FF4F81E0808367
:103B70008091700082608093700081E080936E007D
:103B800080912401282F30E08091C200482F50E01E
:103B9000C901880F991F9C01220F331F220F331F69
:103BA000820F931F840F951FFC01ED53FF4F9081EF
:103BB000809168009817E9F180912401282F30E066
:103BC0008091C200482F50E0C901880F991F9C01C5
:103BD000220F331F220F331F820F931F840F951F55
:103BE000FC01ED53FF4F908180916900891708F522
:103BF00080912401282F30E08091C200482F50E0AE
:103C0000C901880F991F9C01220F331F220F331FF8
:103C1000820F931F840F951FFC01EE58FF4F81E028
:103C200080838091700082608093700081E0809337
:103C30006E0080912401282F30E08091C200482F2F
:103C400050E0C901880F991F9C01220F331F220FDA
:103C5000331F820F931F840F951FFC01ED53FF4FFD
:103C60008081882311F180912401282F30E08091F8
:103C7000C200482F50E0C901880F991F9C01220FF4
:103C8000331F220F331F820F931F840F951FFC01D8
:103C9000ED53FF4F8081823040F48091700080614D
:103CA0008093700081E080936E0080912401282F22
:103CB00030E08091C200482F50E0C901880F991F61
:103CC0009C01220F331F220F331F820F931F840F7B
:103CD000951FFC01ED53FF4F90818091680098176C
:103CE00049F480916F00813029F4809169008250FD
:103CF0008093690080916E00813019F410926E00FB
:103D000077C180912401282F30E08091C200482F94
:103D100050E0C901880F991F9C01220F331F220F09
:103D2000331F820F931F840F951FFC01EE58FF4F26
:103D30001082809170008D7F8093700059C18091B6
:103D40002401282F30E08091C200482F50E0C901A3
:103D5000880F991F9C01220F331F220F331F820FE0
:103D6000931F840F951FFC01ED53FF4F90818091AD
:103D70006800981741F48091700081608093700012
:103D800081E080936E0080912401282F30E08091A3
:103D9000C200482F50E0C901880F991F9C01220FD3
:103DA000331F220F331F820F931F840F951FFC01B7
:103DB000ED53FF4F908180916900981709F580912C
:103DC0002401282F30E08091C200482F50E0C90123
:103DD000880F991F9C01220F331F220F331F820F60
:103DE000931F840F951FFC01EE58FF4F81E08083E5
:103DF0008091700081608093700081E080936E00FC
:103E000080912401282F30E08091C200482F50E09B
:103E1000C901880F991F9C01220F331F220F331FE6
:103E2000820F931F840F951FFC01ED53FF4F90816C
:103E3000809168009817E9F180912401282F30E0E3
:103E40008091C200482F50E0C901880F991F9C0142
:103E5000220F331F220F331F820F931F840F951FD2
:103E6000FC01ED53FF4F908180916900891708F59F
:103E700080912401282F30E08091C200482F50E02B
:103E8000C901880F991F9C01220F331F220F331F76
:103E9000820F931F840F951FFC01EE58FF4F81E0A6
:103EA00080838091700081608093700081E08093B6
:103EB0006E0080912401282F30E08091C200482FAD
:103EC00050E0C901880F991F9C01220F331F220F58
:103ED000331F820F931F840F951FFC01ED53FF4F7B
:103EE0008081882311F180912401282F30E0809176
:103EF000C200482F50E0C901880F991F9C01220F72
:103F0000331F220F331F820F931F840F951FFC0155
:103F1000ED53FF4F8081823040F4809170008061CA
:103F20008093700081E080936E0080912401282F9F
:103F300030E08091C200482F50E0C901880F991FDE
:103F40009C01220F331F220F331F820F931F840FF8
:103F5000951FFC01ED53FF4F9081809168009817E9
:103F600049F480916F00813029F48091690082507A
:103F70008093690080916E00813081F480912401EA
:103F8000882F90E0089620917000FC01EC5EFE4FB7
:103F900020831092700010926E002AC0809124013C
:103FA000282F30E08091C200482F50E0C901880FCF
:103FB000991F9C01220F331F220F331F820F931F63
:103FC000840F951FFC01EE58FF4F10828091700006
:103FD0008E7F8093700080912401882F90E0089656
:103FE00020917000FC01EC5EFE4F20831092700067
:103FF0008091C2008F5F8093C2008091C2008A309E
:1040000010F40C94E312809124018F5F80932401BB
:1040100080912401883010F40C94DF120F900F90DF
:10402000CF91DF910895DF93CF93CDB7DEB72E9771
:104030000FB6F894DEBF0FBECDBF0E94140D1092D4
:1040400024010FC080912401882F90E0FC01EC5ED8
:10405000FE4F80810E94540C809124018F5F8093D9
:10406000240180912401803168F30E941E0D0E947A
:104070000A0D80E00E94540C81E00E94540C80E004
:1040800090E0AAEFB3E48B879C87AD87BE876B85F2
:104090007C858D859E8520E030E04AEF54E40E94C7
:1040A0001F02DC01CB018F839887A987BA876F81B4
:1040B000788589859A8520E030E040E85FE30E94BA
:1040C000790388232CF481E090E09E838D833FC0A8
:1040D0006F81788589859A8520E03FEF4FE757E427
:1040E0000E94190318164CF56B857C858D859E857D
:1040F00020E030E040E251E40E941F02DC01CB01ED
:10410000BC01CD010E944900DC01CB019E838D835F
:104110000FC088EC90E09C838B838B819C810197FE
:10412000F1F79C838B838D819E8101979E838D8384
:104130008D819E81009769F714C06F81788589858C
:104140009A850E944900DC01CB019E838D838D817D
:104150009E819A83898389819A810197F1F79A8355
:1041600089832E960FB6F894DEBF0FBECDBFCF91D8
:10417000DF910895991B79E004C0991F961708F004
:10418000961B881F7A95C9F780950895AA1BBB1BBB
:1041900051E107C0AA1FBB1FA617B70710F0A61B47
:1041A000B70B881F991F5A95A9F780959095BC0168
:1041B000CD01089597FB092E07260AD077FD04D07C
:1041C000E5DF06D000201AF4709561957F4F0895C1
:1041D000F6F7909581959F4F08952F923F924F92B9
:1041E0005F926F927F928F929F92AF92BF92CF9287
:1041F000DF92EF92FF920F931F93CF93DF93CDB790
:10420000DEB7CA1BDB0B0FB6F894DEBF0FBECDBF07
:1042100009942A88398848885F846E847D848C84D8
:104220009B84AA84B984C884DF80EE80FD800C81E1
:104230001B81AA81B981CE0FD11D0FB6F894DEBFC4
:0C4240000FBECDBFED010895F894FFCF34
:0C424C000000000000000000040203005D
:00000001FF
